{
	"data": {
		"bytecode": {
			"linkReferences": {},
			"object": "608060405234801561001057600080fd5b5060405161016d38038061016d8339818101604052602081101561003357600080fd5b810190808051906020019092919050505080600081905550506101128061005b6000396000f3fe60806040526004361060305760003560e01c8063159fbdb21460355780636d4ce63c14606c578063c95473db146094575b600080fd5b348015604057600080fd5b50606a60048036036020811015605557600080fd5b810190808035906020019092919050505060bf565b005b348015607757600080fd5b50607e60c9565b6040518082815260200191505060405180910390f35b60bd6004803603602081101560a857600080fd5b810190808035906020019092919050505060d2565b005b8060008190555050565b60008054905090565b806000819055505056fea2646970667358221220c629d38d877dd6e0fa68db7bfd3ed9eb66a48d98ecaea0d06f94ffc25f53a01564736f6c63430006040033",
			"opcodes": "PUSH1 0x80 PUSH1 0x40 MSTORE CALLVALUE DUP1 ISZERO PUSH2 0x10 JUMPI PUSH1 0x0 DUP1 REVERT JUMPDEST POP PUSH1 0x40 MLOAD PUSH2 0x16D CODESIZE SUB DUP1 PUSH2 0x16D DUP4 CODECOPY DUP2 DUP2 ADD PUSH1 0x40 MSTORE PUSH1 0x20 DUP2 LT ISZERO PUSH2 0x33 JUMPI PUSH1 0x0 DUP1 REVERT JUMPDEST DUP2 ADD SWAP1 DUP1 DUP1 MLOAD SWAP1 PUSH1 0x20 ADD SWAP1 SWAP3 SWAP2 SWAP1 POP POP POP DUP1 PUSH1 0x0 DUP2 SWAP1 SSTORE POP POP PUSH2 0x112 DUP1 PUSH2 0x5B PUSH1 0x0 CODECOPY PUSH1 0x0 RETURN INVALID PUSH1 0x80 PUSH1 0x40 MSTORE PUSH1 0x4 CALLDATASIZE LT PUSH1 0x30 JUMPI PUSH1 0x0 CALLDATALOAD PUSH1 0xE0 SHR DUP1 PUSH4 0x159FBDB2 EQ PUSH1 0x35 JUMPI DUP1 PUSH4 0x6D4CE63C EQ PUSH1 0x6C JUMPI DUP1 PUSH4 0xC95473DB EQ PUSH1 0x94 JUMPI JUMPDEST PUSH1 0x0 DUP1 REVERT JUMPDEST CALLVALUE DUP1 ISZERO PUSH1 0x40 JUMPI PUSH1 0x0 DUP1 REVERT JUMPDEST POP PUSH1 0x6A PUSH1 0x4 DUP1 CALLDATASIZE SUB PUSH1 0x20 DUP2 LT ISZERO PUSH1 0x55 JUMPI PUSH1 0x0 DUP1 REVERT JUMPDEST DUP2 ADD SWAP1 DUP1 DUP1 CALLDATALOAD SWAP1 PUSH1 0x20 ADD SWAP1 SWAP3 SWAP2 SWAP1 POP POP POP PUSH1 0xBF JUMP JUMPDEST STOP JUMPDEST CALLVALUE DUP1 ISZERO PUSH1 0x77 JUMPI PUSH1 0x0 DUP1 REVERT JUMPDEST POP PUSH1 0x7E PUSH1 0xC9 JUMP JUMPDEST PUSH1 0x40 MLOAD DUP1 DUP3 DUP2 MSTORE PUSH1 0x20 ADD SWAP2 POP POP PUSH1 0x40 MLOAD DUP1 SWAP2 SUB SWAP1 RETURN JUMPDEST PUSH1 0xBD PUSH1 0x4 DUP1 CALLDATASIZE SUB PUSH1 0x20 DUP2 LT ISZERO PUSH1 0xA8 JUMPI PUSH1 0x0 DUP1 REVERT JUMPDEST DUP2 ADD SWAP1 DUP1 DUP1 CALLDATALOAD SWAP1 PUSH1 0x20 ADD SWAP1 SWAP3 SWAP2 SWAP1 POP POP POP PUSH1 0xD2 JUMP JUMPDEST STOP JUMPDEST DUP1 PUSH1 0x0 DUP2 SWAP1 SSTORE POP POP JUMP JUMPDEST PUSH1 0x0 DUP1 SLOAD SWAP1 POP SWAP1 JUMP JUMPDEST DUP1 PUSH1 0x0 DUP2 SWAP1 SSTORE POP POP JUMP INVALID LOG2 PUSH5 0x6970667358 0x22 SLT KECCAK256 0xC6 0x29 0xD3 DUP14 DUP8 PUSH30 0xD6E0FA68DB7BFD3ED9EB66A48D98ECAEA0D06F94FFC25F53A01564736F6C PUSH4 0x43000604 STOP CALLER "
		},
		"gasEstimates": {
			"creation": {
				"codeDepositCost": "54800",
				"executionCost": "infinite",
				"totalCost": "infinite"
			},
			"external": {
				"get()": "1013",
				"setNP(uint256)": "20220",
				"setP(uint256)": "20240"
			}
		},
		"methodIdentifiers": {
			"get()": "6d4ce63c",
			"setNP(uint256)": "159fbdb2",
			"setP(uint256)": "c95473db"
		}
	},
	"abi": [
		{
			"inputs": [
				{
					"internalType": "uint256",
					"name": "_p",
					"type": "uint256"
				}
			],
			"stateMutability": "nonpayable",
			"type": "constructor"
		},
		{
			"inputs": [],
			"name": "get",
			"outputs": [
				{
					"internalType": "uint256",
					"name": "",
					"type": "uint256"
				}
			],
			"stateMutability": "view",
			"type": "function"
		},
		{
			"inputs": [
				{
					"internalType": "uint256",
					"name": "_n",
					"type": "uint256"
				}
			],
			"name": "setNP",
			"outputs": [],
			"stateMutability": "nonpayable",
			"type": "function"
		},
		{
			"inputs": [
				{
					"internalType": "uint256",
					"name": "_n",
					"type": "uint256"
				}
			],
			"name": "setP",
			"outputs": [],
			"stateMutability": "payable",
			"type": "function"
		}
	]
}